:060000000A128A11E82F2C
:1000100001340034F3008312031386140F30F1000F
:10002000710886057308F039F100710886040A1614
:100030008A1185250A128A110F30F1007108831286
:10004000031386057308F10003300310F10DFF3E22
:10005000031D25280310710DF039F2007208860483
:100060000A168A1185250800FB000A30F0000030CE
:10007000F1007B08023E840083130008F900FA01B6
:100080007908F2007A08F3000A168A1197260A12F4
:100090008A1170087104031D6E2880300A168A11B7
:1000A000F9250A128A110A30F0000030F1007B08AD
:1000B000023E840083130008F900FA017908F20077
:1000C0007A08F3000A168A11E2260A128A117008C9
:1000D000303E0A128A110A200A128A110A30F000F0
:1000E0000030F1007B0A840083130008F900FA0154
:1000F0007908F2007A08F3000A168A11E2260A1239
:100100008A1170087104031DA62881300A168A110D
:10011000F9250A128A110A30F0000030F1007B083C
:10012000023E840083130008F900FA017908F20006
:100130007A08F3000A168A1197260A128A117008A3
:10014000303E0A128A110A200A128A1182300A16D7
:100150008A11F9250A128A113A300A128A110A20E4
:100160000A128A110A30F0000030F1007B0A840084
:1001700083130008F900FA017908F2007A08F30005
:100180000A168A1197260A128A1170087104031D33
:10019000E92883300A168A11F9250A128A110A30D1
:1001A000F0000030F1007B0A840083130008F9009E
:1001B000FA017908F2007A08F3000A168A11E22699
:1001C0000A128A117008303E0A128A110A200A1295
:1001D0008A110A30F0000030F1007B08840083139C
:1001E0000008F900FA017908F2007A08F3000A160B
:1001F0008A11E2260A128A1170087104031D20294F
:1002000084300A168A11F9250A128A110A30F00080
:100210000030F1007B0A840083130008F900FA0122
:100220007908F2007A08F3000A168A1197260A1252
:100230008A117008303E0A128A110A200A128A11A5
:1002400085300A168A11F9250A128A113A300A12E3
:100250008A110A200A128A110A30F0000030F100D7
:100260007B08840083130008F900FA017908F20082
:100270007A08F3000A168A1197260A128A11700862
:100280007104031D632986300A168A11F9250A12A2
:100290008A110A30F0000030F1007B0884008313DB
:1002A0000008F900FA017908F2007A08F3000A164A
:1002B0008A11E2260A128A117008303E0A128A1147
:1002C0000A200A128A1187300A168A11F9250A12A1
:1002D0008A110A30F0000030F1007B08840083139B
:1002E0000008F900FA017908F2007A08F3000A160A
:1002F0008A1197260A128A117008303E0A128A1152
:100300000A200A128A1120300A128A110A200A12BF
:100310008A119F290530F4009130F5000A168A11E0
:10032000AF2508000830F4009130F5000A168A1154
:10033000AF25080048300A128A110A2008007B08FD
:10034000033E840083130008003A03198A29013A06
:10035000031992299A2908000A168A112F250A12D0
:100360008A1183120313A201A301A401A501A00114
:10037000A1018518CA290130D6070318D70A003011
:10038000D707053056065704031DCA290130D60089
:100390000030D70080300A168A11F9250A128A1116
:1003A0007330F4009030F5000A168A11AF250A1256
:1003B0008A11C0300A168A11F9250A128A1183128D
:1003C00003132308FA002208F9000A168A11D2251D
:1003D0000A128A110B30F4009130F5000A168A11C6
:1003E000AF250A128A11831203132508FA00240884
:1003F000F9000A168A11D2250A128A110B30F4006C
:100400009130F5000A168A11AF250A128A1183125B
:1004100003132108FA002008F9000A168A11D225D0
:100420000A128A118312031385181F2A0A128A15C9
:10043000FD210A128A110A128A152D24080083123E
:100440000313051A2E2A0130CC070318CD0A0030F9
:10045000CD0704304C064D040319CA2985181D2BFD
:10046000C62980300A168A11F9250A128A11C2306B
:10047000F4009030F5000A168A11AF250A128A118D
:10048000831203130519622A00302302183003195E
:1004900022020318622A0130A2070318A30A0030BF
:1004A000A307C0300A168A11F9250A128A1183128D
:1004B00003132308FA002208F9000A168A11D2252C
:1004C0000A128A118312031385192F2B2208230481
:1004D00003192F2B0130A2020030031CA303A30237
:1004E000C0300A168A11F9250A128A1183120313E1
:1004F0002308FA002208F9000A168A11D2250A12E6
:100500008A112F2B80300A168A11F9250A128A11B6
:100510008330F4009030F5000A168A11AF250A12D4
:100520008A11831203130519B32A003025023C30C7
:10053000031924020318B32A0130A4070318A50ADB
:100540000030A507C3300A168A11F9250A128A114C
:10055000831203132508FA002408F9000A168A11E9
:10056000D2250A128A118312031385192F2B24080E
:10057000250403192F2B0130A4020030031CA5030E
:10058000A502C3300A168A11F9250A128A118312AC
:1005900003132508FA002408F9000A168A11D22547
:1005A0000A128A112F2B80300A168A11F9250A1295
:1005B0008A11D030F4009030F5000A168A11AF2568
:1005C0000A128A11831203130519FD2A0130A007AC
:1005D0000318A10A0030A107C6300A168A11F925AE
:1005E0000A128A11831203132108FA002008F90065
:1005F0000A168A11D2250A128A1183120313851949
:100600002F2B2008210403192F2B0130A0020030CA
:10061000031CA103A102C6300A168A11F9250A1289
:100620008A11831203132108FA002008F9000A1620
:100630008A11D2250A128A112F2B831203134D0817
:10064000003A0319242B2F2B4C08013A0319312AA5
:10065000033A0319822A013A0319D32A2F2B831252
:1006600003132308C7002208C6002508C900240870
:10067000C8002108CB002008CA001F2A0A168A11C8
:100680002F250A128A110A128A15FD210A128A11CF
:1006900083120313A8000230280784008313000884
:1006A000A900AA012908AD002A08AE000A128A157D
:1006B000FD210A128A1183120313A80001302807B2
:1006C000840083130008A900AA012908AF002A08A2
:1006D000B0000A128A15FD210A128A1184008313C0
:1006E000000883120313A800A9012808AB002908F9
:1006F000AC0085188A2B0130D6070318D70A0030C2
:10070000D707053056065704031D8A2B0130D60043
:100710000030D70080300A168A11F9250A128A1192
:10072000B330F4009030F5000A168A11AF250A1292
:100730008A11C0300A168A11F9250A128A11831209
:1007400003132E08FA002D08F9000A168A11D22583
:100750000A128A110B30F4009130F5000A168A1142
:10076000AF250A128A11831203133008FA002F08EA
:10077000F9000A168A11D2250A128A110B30F400E8
:100780009130F5000A168A11AF250A128A118312D8
:1007900003132C08FA002B08F9000A168A11D22537
:1007A0000A128A1183120313851C08008312031393
:1007B000051AE52B0130CC070318CD0A0030CD0710
:1007C00004304C064D0403198A2B8518D52C0330B0
:1007D000872B80300A168A11F9250A128A110030F7
:1007E000F4009030F5000A168A11AF250A128A111A
:1007F0008312031305191A2C00302E021830031926
:100800002D0203181A2C0130AD070318AE0A003070
:10081000AE07C0300A168A11F9250A128A1183120E
:1008200003132E08FA002D08F9000A168A11D225A2
:100830000A128A11831203138519E72C2D082E043E
:100840000319E72C0130AD020030031CAE03AE02E9
:10085000C0300A168A11F9250A128A11831203136D
:100860002E08FA002D08F9000A168A11D2250A125C
:100870008A11E72C80300A168A11F9250A128A118A
:100880002830F4009030F5000A168A11AF250A12BC
:100890008A118312031305196B2C003030023C308F
:1008A00003192F0203186B2C0130AF070318B00A8D
:1008B0000030B007C3300A168A11F9250A128A11CE
:1008C000831203133008FA002F08F9000A168A1160
:1008D000D2250A128A11831203138519E72C2F08D7
:1008E00030040319E72C0130AF020030031CB003C1
:1008F000B002C3300A168A11F9250A128A1183122E
:1009000003133008FA002F08F9000A168A11D225BD
:100910000A128A11E72C80300A168A11F9250A1268
:100920008A116130F4009030F5000A168A11AF2563
:100930000A128A11831203130519B52C0130AB0773
:100940000318AC0A0030AC07C6300A168A11F92524
:100950000A128A11831203132C08FA002B08F900DB
:100960000A168A11D2250A128A11831203138519D5
:10097000E72C2B082C040319E72C0130AB020030C4
:10098000031CAC03AC02C6300A168A11F9250A1200
:100990008A11831203132C08FA002B08F9000A1697
:1009A0008A11D2250A128A11E72C831203134D08EB
:1009B000003A0319DC2CE72C4C08013A0319E92B07
:1009C000033A03193A2C013A03198B2CE72C8312B2
:1009D00003132D08A8002808F9002F08A9002908EA
:1009E000FA002B08AA002A08FB0001300A128A1517
:1009F00098220A128A11D62B0A168A112F250A125A
:100A00008A110A128A1507200A128A118312031307
:100A1000A80001302807840083130008A900AA0158
:100A20002908AF002A08B0000A128A1507200A1206
:100A30008A1183120313A80002302807840083134D
:100A40000008A900AA012908B1002A08B2000A1268
:100A50008A1507200A128A1183120313A800033093
:100A60002807840083130008A900AA012908AB0005
:100A70002A08AC000A128A1507200A128A1184007B
:100A80008313000883120313A800A9012808AD00EE
:100A90002908AE0085185B2D0130D6070318D70A48
:100AA0000030D707053056065704031D5B2D013073
:100AB000D6000030D70080300A168A11F9250A12B4
:100AC0008A114F30F4009030F5000A168A11AF25D4
:100AD0000A128A11C0300A168A11F9250A128A11DF
:100AE000831203133008FA002F08F9000A168A113E
:100AF000D2250A128A110B30F4009130F5000A1643
:100B00008A11AF250A128A11831203133208FA00E0
:100B10003108F9000A168A11D2250A128A110B30FF
:100B2000F4009130F5000A168A11AF250A128A11D5
:100B3000831203132C08FA002B08F9000A168A11F5
:100B4000D2250A128A118130F4009030F5000A167D
:100B50008A11AF250A128A11FD2DF530F40090306C
:100B6000F5000A168A11AF250A128A111B2EED30E4
:100B7000F4009030F5000A168A11AF250A128A1186
:100B80001B2EE930F4009030F5000A168A11AF25CB
:100B90000A128A111B2E0130F4009130F5000A165A
:100BA0008A11AF250A128A111B2EF130F400903001
:100BB000F5000A168A11AF250A128A111B2EFD3084
:100BC000F4009030F5000A168A11AF250A128A1136
:100BD0001B2EF930F4009030F5000A168A11AF256B
:100BE0000A128A111B2EE530F4009030F5000A1627
:100BF0008A11AF250A128A111B2E831203132E08A5
:100C0000003A0319042EF32D2D08013A0319AD2DD6
:100C1000033A0319B72D013A0319C12D073A0319F5
:100C2000CB2D013A0319D52D033A0319DF2D013AD3
:100C30000319E92DF32D83120313851C0800831279
:100C40000313051A2E2E0130CC070318CD0A0030ED
:100C5000CD0704304C064D0403195B2D8518C02FB9
:100C60000430582D80300A168A11F9250A128A118B
:100C70009330F4009030F5000A168A11AF250A125D
:100C80008A11831203130519632E003030021F30BE
:100C900003192F020318632E0130AF070318B00A9F
:100CA0000030B007C0300A168A11F9250A128A11DD
:100CB000831203133008FA002F08F9000A168A116C
:100CC000D2250A128A11831203138519D32F2F08F4
:100CD00030040319D32F0130AF020030031CB003DE
:100CE000B002C0300A168A11F9250A128A1183123D
:100CF00003133008FA002F08F9000A168A11D225CA
:100D00000A128A11D32F80300A168A11F9250A1285
:100D10008A111430F4009030F5000A168A11AF25BC
:100D20000A128A11831203130519B42E00303202FD
:100D30000C30031931020318B42E0130B107031827
:100D4000B20A0030B207C3300A168A11F9250A1216
:100D50008A11831203133208FA003108F9000A16C7
:100D60008A11D2250A128A11831203138519D32FEF
:100D7000310832040319D32F0130B1020030031CB3
:100D8000B203B202C3300A168A11F9250A128A1177
:100D9000831203133208FA003108F9000A168A1187
:100DA000D2250A128A11D32F80300A168A11F9250A
:100DB0000A128A11A330F4009030F5000A168A1145
:100DC000AF250A128A11831203130519FE2E013072
:100DD000AB070318AC0A0030AC07C6300A168A11FC
:100DE000F9250A128A11831203132C08FA002B0822
:100DF000F9000A168A11D2250A128A1183120313E6
:100E00008519D32F2B082C040319D32F0130AB02E3
:100E10000030031CAC03AC02C6300A168A11F92557
:100E20000A128A11831203132C08FA002B08F90006
:100E30000A168A11D2250A128A11D32F80300A1677
:100E40008A11F9250A128A113C30F4009030F5001D
:100E50000A168A11AF250A128A1183120313051983
:100E60003E2F00302E02083003192D0203183E2FAA
:100E70000130AD070318AE0A0030AE0785194A2FBE
:100E80002D082E0403194A2F0130AD020030031C37
:100E9000AE03AE02C9300A168A11F9250A128A1168
:100EA000A12FF530F4009030F5000A168A11AF2515
:100EB0000A128A11D32FED30F4009030F5000A1693
:100EC0008A11AF250A128A11D32FE930F40090302D
:100ED000F5000A168A11AF250A128A11D32F0130A4
:100EE000F4009130F5000A168A11AF250A128A1112
:100EF000D32FF130F4009030F5000A168A11AF2597
:100F00000A128A11D32FFD30F4009030F5000A1632
:100F10008A11AF250A128A11D32FF930F4009030CC
:100F2000F5000A168A11AF250A128A11D32FE5306F
:100F3000F4009030F5000A168A11AF250A128A11C2
:100F4000D32F831203132E08003A0319A82F972FCB
:100F50002D08013A0319512F033A03195B2F013A67
:100F60000319652F073A03196F2F013A0319792FD7
:100F7000033A0319832F013A03198D2F972FD32F8B
:100F80004D08003A0319C52FD32F4C08013A031915
:100F9000322E033A0319832E013A0319D42E073A4D
:100FA00003191E2FD32F831203133108A80028081A
:100FB000F9002B08A9002908FA002D08AA002A0820
:100FC000FB002F080A128A1506250A128A111F2E05
:100FD000FD0183134430840056300A168A11FF2421
:100FE0000A128A110A128A1108200A128A11D600DE
:100FF0000A128A110920D70083010A128A1574285F
:10100E005030F9007908F1000430F2000030F3009E
:10101E0003300A168A113B270A128A15831203130C
:10102E005108F9007908FD000F307D05F9000A30EE
:10103E00FA007A08F0007D08FB0004300310FB0C68
:10104E00FF3E031D25287B080A168A114E250A121B
:10105E008A157907FC007C0883120313D10052080D
:10106E00F9007908FD000F307D05F9000A30FA000D
:10107E007A08F0007D08FB0004300310FB0CFF3EE5
:10108E00031D44287B080A168A114E250A128A155A
:10109E007907FC007C0883120313D2005308F90071
:1010AE007908FD000F307D05F9000A30FA007A0844
:1010BE00F0007D08FB0004300310FB0CFF3E031D07
:1010CE0063287B080A168A114E257907FC007C08D6
:1010DE0083120313D30050300800FF30831603131E
:1010EE008500870188010A128A15E8200A128A15DE
:1010FE000A168A1122250A128A1501308312031349
:10110E00D6000030D7000230C1004108F9001E3071
:10111E00C2004208FA001E30C3004308FB00013033
:10112E000A128A1598220A128A15043083120313A2
:10113E00C1004108F9001030C2004208FA00023026
:10114E00C3004308FB0004300A128A1506250A1252
:10115E008A150A128A15FD210A128A150A128A1593
:10116E002D240A128A15D2280A128A15EE250A1281
:10117E008A15D2280A128A113E230A128A15D228FB
:10118E000A128A11FC240A128A15D2280A128A110E
:10119E00AC210A128A15831203135708003A031959
:1011AE00D928D2285608013A0319BB28033A031945
:1011BE00C128013A0319C728073A0319CD28D228A6
:1011CE00D2288312031306108610061286120613F7
:1011DE008613831603130610861006128612061344
:1011EE0086138230F500DD30F400F40BFC28F50B8D
:1011FE00FC2801290F30F4007408831203138605AE
:10120E003030F400740886040A168A1185250A12F5
:10121E008A151430F5007930F400F40B1429F50B0F
:10122E00142919290F30F40074088312031386054C
:10123E003030F400740886040A168A1185250A12C5
:10124E008A15F930F400F40B2A292D290F30F400F9
:10125E0074088312031386053030F4007408860474
:10126E000A168A1185250A128A150730F5007D3077
:10127E00F400F40B4029F50B40290F30F4007408EC
:10128E0083120313860586160A168A1185250A12FD
:10129E008A150730F5007D30F400F40B5429F50B58
:1012AE00542928300A168A11F9250A128A150C308B
:1012BE000A168A11F9250A128A1501300A168A11A0
:1012CE00F9250A128A1506300A168A11F925080020
:1012DE00831203133008B4003108B5003208B6008B
:1012EE000310350D360DB7003708BD003D08031D40
:1012FE0089290030B3000030B2000030B100003058
:10130E00B00008003008B4003108B5003208B6004D
:10131E0017300310B60CB50CB40CFF3E031D90290C
:10132E003408B7003708B800B117FF30B005FF30EA
:10133E00B1050030B2053008B9003108BA003208E4
:10134E00BB00BC018E30BD02BD1FCB293D08803ACB
:10135E008F3E0318BB290030B3000030B2000030BE
:10136E00B1000030B000080001300310BC0CBB0C03
:10137E00BA0CB90CFF3E031DBC290130B400340871
:10138E00BD070319E629BB2918303D02031CE329CA
:10139E000030B3000030B2000030B1000030B000B9
:1013AE0008000130B4000310B90DBA0DBB0DBC0D11
:1013BE00B40BDA290130BD023D08031DD8293808C7
:1013CE000319F429B909BA09BB09BC09B90A0319E9
:1013DE00BA0A0319BB0A0319BC0A3C08B3003B083E
:1013EE00B2003A08B1003908B00008005030F900D8
:1013FE007908F1000330F2000030F30000300A16D5
:10140E008A113B270A128A15831203135008F9001A
:10141E007908FD000F307D05F9000A30FA007A08D0
:10142E00F0007D08FB0004300310FB0CFF3E031D93
:10143E001B2A7B0807390A168A114E250A128A15AD
:10144E007907FC007C0883120313D0005108F900C1
:10145E007908FD000F307D05F9000A30FA007A0890
:10146E00F0007D08FB0004300310FB0CFF3E031D53
:10147E003B2A7B080A168A114E250A128A1579070D
:10148E00FC007C0883120313D100521F752AD21E52
:10149E00532AD301D30A542AD3015208F9007908EA
:1014AE00FD000F307D05F9000A30FA007A08F000D1
:1014BE007D08FB0004300310FB0CFF3E031D622A67
:1014CE007B0801390A168A114E250A128A157907E8
:1014DE00FC007C0883120313D200962A5208F900EE
:1014EE007908FD000F307D05F9000A30FA007A0800
:1014FE00F0007D08FB0004300310FB0CFF3E031DC3
:10150E00832A7B080A168A114E257907FC007C086F
:10151E0083120313D2000230F9007908D300503041
:10152E000800FC000A30F0000030F1007B08831246
:10153E000313A000A1012008F2002108F3000A16EF
:10154E008A1197260A128A15700883120313A200B5
:10155E007108A3000A30F0000030F1007B08A400EF
:10156E00A5012408F2002508F3000A168A11E226C6
:10157E000A128A15700883120313A6000330031093
:10158E00A60DFF3E031DC62A0310260D2204A7003A
:10159E002708D0000A30F0000030F1007A08A000D1
:1015AE00A1012008F2002108F3000A168A119726DD
:1015BE000A128A15700883120313A2007108A30081
:1015CE000A30F0000030F1007A08A400A5012408CA
:1015DE00F2002508F3000A168A11E2260A128A156D
:1015EE00700883120313A60003300310A60DFF3EEE
:1015FE00031DFC2A0310260D2204A7002708D10084
:10160E000A30F0000030F1007908A000A101200896
:10161E00F2002108F3000A168A1197260A128A157B
:10162E00700883120313A2007108A3000A30F000A1
:10163E000030F1007908A400A5012408F200250865
:10164E00F3000A168A11E2260A128A15700883120E
:10165E000313A60003300310A60DFF3E031D322B0D
:10166E000310260D2204A7002708D200452B52177F
:10167E004D2B6030A0002008D2044D2B7C08003A80
:10168E0003193E2B013A0319402B4D2B5030A0006D
:10169E002008F1000330A1002108F20000300A16E4
:1016AE008A1123260800831203132008A60021089E
:1016BE00A7002208A8000310270D280DA90029084D
:1016CE00AA002A08031D722B0030A0000030A100D2
:1016DE000030A20008002308A6002408A700250851
:1016EE00A8000310270D280DA9002908AF002F0808
:1016FE00031D882B0030A0000030A1000030A20096
:10170E0008002F087B3EA6002608AA072008A60080
:10171E002108A7002208A80010300310A80CA70C5F
:10172E00A60CFF3E031D942B2608A9002908AF0026
:10173E002308A6002408A7002508A80010300310CF
:10174E00A80CA70CA60CFF3E031DA62B2608A9006D
:10175E002908AF068030A6002608AF05A117A417EA
:10176E00FF30A305FF30A4050030A5050030AB0007
:10177E000030AC000030AD000730A6002608AE00E9
:10178E00201CD72B2308AB07240803110318240AA7
:10179E00031DAC07250803110318250A031DAD0709
:1017AE0001300310A20CA10CA00CFF3E031DD82B80
:1017BE0001300310A30DA40DA50DFF3E031DE02B5C
:1017CE000130AE02031DC72B0930A6002608AE005D
:1017DE00201CFF2B2308AB07240803110318240A2F
:1017EE00031DAC07250803110318250A031DAD07B9
:1017FE0001300310A20CA10CA00CFF3E031D002C07
:10180E0001300310AD0CAC0CAB0CFF3E031D082CCD
:10181E000130AE02031DEF2B2B08F0002C08F10057
:10182E002D08F2002A08A6002608F3002F08A700AC
:10183E002708F4000A168A119427700883120313DE
:10184E00A0007108A1007208A2000800FB000A1691
:10185E008A112F250A128A150A30F0000030F10085
:10186E007B08023E840083130008F900FA01790810
:10187E00F2007A08F3000A168A11E2260A128A1575
:10188E007008303E0A128A110A200A128A150A308E
:10189E00F0000030F1007B08023E84008313000844
:1018AE00F900FA017908F2007A08F3000A168A1193
:1018BE0097260A128A157008303E0A128A110A20DB
:1018CE000A128A153A300A128A110A200A128A1549
:1018DE000A30F0000030F1007B0A84008313000808
:1018EE00F900FA017908F2007A08F3000A168A1153
:1018FE00E2260A128A157008303E0A128A110A2050
:10190E000A128A150A30F0000030F1007B0A8400BA
:10191E0083130008F900FA017908F2007A08F3003F
:10192E000A168A1197260A128A157008303E0A1274
:10193E008A110A200A128A153A300A128A110A20CE
:10194E000A128A150A30F0000030F1007B0884007C
:10195E0083130008F900FA017908F2007A08F300FF
:10196E000A168A11E2260A128A157008303E0A12E9
:10197E008A110A200A128A150A30F0000030F1008E
:10198E007B08840083130008F900FA017908F2003D
:10199E007A08F3000A168A1197260A128A15700819
:1019AE00303E0A128A110A200A128A1520300A12B3
:1019BE008A110A200A128A15F92C0530F40091308A
:1019CE00F5000A168A11AF2508000830F400913090
:1019DE00F5000A168A11AF25080048300A128A113E
:1019EE000A2008007B08033E840083130008003A97
:1019FE000319E42C013A0319EC2CF42C0800FC001A
:101A0E000A30F0000030F1007B0883120313A000AF
:101A1E00A1012008F2002108F3000A168A11972668
:101A2E000A128A15700883120313A2007108A3000C
:101A3E000A30F0000030F1007B08A400A501240854
:101A4E00F2002508F3000A168A11E2260A128A15F8
:101A5E00700883120313A60003300310A60DFF3E79
:101A6E00031D342D0310260D2204A7002708D000D5
:101A7E000A30F0000030F1007C08A000A10120081F
:101A8E00F2002108F3000A168A1197260A128A1507
:101A9E00700883120313A2007108A3000A30F0002D
:101AAE000030F1007C08A400A5012408F2002508EE
:101ABE00F3000A168A11E2260A128A15700883129A
:101ACE000313A60003300310A60DFF3E031D6A2D5F
:101ADE000310260D2204A7002708D1000A30F000BB
:101AEE000030F1007908A000A1012008F2002108C1
:101AFE00F3000A168A1197260A128A1570088312A5
:101B0E000313A2007108A3000A30F0000030F100A8
:101B1E007908A400A5012408F2002508F3000A168E
:101B2E008A11E2260A128A15700883120313A60080
:101B3E0003300310A60DFF3E031DA02D0310260D2E
:101B4E002204A7002708D2000A30F0000030F1006E
:101B5E007A08A000A1012008F2002108F3000A165D
:101B6E008A1197260A128A15700883120313A2008F
:101B7E007108A3000A30F0000030F1007A08A400CA
:101B8E00A5012408F2002508F3000A168A11E226A0
:101B9E000A128A15700883120313A600033003106D
:101BAE00A60DFF3E031DD62D0310260D2204A70001
:101BBE002708D3005030A0002008F1000430A10007
:101BCE002108F20003300A168A11232608000A1291
:101BDE008A15FD210A128A150A128A1134200A1258
:101BEE008A150A168A119A250A128A150A168A1158
:101BFE005F250A128A15710883120313D500700827
:101C0E00D4000A128A15FD210A128A158400293081
:101C1E0083130002031C232EC0300A168A11F925E5
:101C2E000A128A150A128A1507200A128A150A1232
:101C3E008A15EB260A128A150A128A15FD210A1236
:101C4E008A1584002830831300020318A12E8312F4
:101C5E0003135508F9005408F8000A168A11712565
:101C6E000A128A15780883120313A3007908A400B8
:101C7E007A08A5006730A0009C30A1004030A20079
:101C8E000A128A155A230A128A1583120313200880
:101C9E00B0002108B1002208B2000A128A156F2185
:101CAE000A128A15831203133108CF003008CE00B2
:101CBE000A30F0000030F1004F08F3004E08F20039
:101CCE000A168A115B260A128A15710883120313EB
:101CDE00C5007008C400C0300A168A11F9250A1210
:101CEE008A15DE30F4009030F5000A168A11AF2501
:101CFE000A128A15831203134508FA004408F900E4
:101D0E000A168A11D2250A128A15C8300A168A11A5
:101D1E00F9250A128A15DF300A128A110A200A12D0
:101D2E008A150D30F4009130F5000A168A11AF2590
:101D3E000A128A15831203138518B52E0130D607A1
:101D4E000318D70A0030D707053056065704031D6F
:101D5E0008000130D6000030D70008000A128A159C
:101D6E00FD210A128A1583120313BE0002303E07AC
:101D7E00840083130008BF00C00147084006031DFE
:101D8E00CA2E46083F06031DE32E0A128A15FD21B0
:101D9E000A128A1583120313BE0001303E07840017
:101DAE0083130008BF00C00149084006031DE12E41
:101DBE0048083F0603190810051AEE2D0814C6012F
:101DCE00C701C801C901EE2DFB00C0300A168A11E9
:101DDE00F9250A128A150A30F0000030F1007B0A4C
:101DEE00840083130008F900FA017908F2007A08DA
:101DFE00F3000A168A11E2260A128A157008303E7E
:101E0E000A128A110A200A128A150A30F0000030CE
:101E1E00F1007B0A840083130008F900FA017908A7
:101E2E00F2007A08F3000A168A1197260A128A150A
:101E3E007008303E0A128A110A200A128A152F30B3
:101E4E000A128A110A200A128A150A30F00000308E
:101E5E00F1007B08023E840083130008F900FA01AA
:101E6E007908F2007A08F3000A168A11E2260A129D
:101E7E008A157008303E0A128A110A200A128A1533
:101E8E000A30F0000030F1007B08023E840083131C
:101E9E000008F900FA017908F2007A08F3000A1630
:101EAE008A1197260A128A157008303E0A128A1174
:101EBE000A200A128A152F300A128A110A200A12D3
:101ECE008A150A30F0000030F1007B08033E8400D2
:101EDE0083130008F900FA017908F2007A08F3007A
:101EEE000A168A11E2260A128A157008303E0A1264
:101EFE008A110A200A128A150A30F0000030F10009
:101F0E007B08033E840083130008F900FA01790868
:101F1E00F2007A08F3000A168A1197260A128A1519
:101F2E007008303E0A128A110A200A128A152030D1
:101F3E000A128A110A200A128A15E52FF530F400CA
:101F4E009030F5000A168A11AF250800ED30F40026
:101F5E009030F5000A168A11AF250800E930F4001A
:101F6E009030F5000A168A11AF2508000130F400F2
:101F7E009130F5000A168A11AF250800F130F400F1
:101F8E009030F5000A168A11AF250800FD30F400D6
:101F9E009030F5000A168A11AF250800F930F400CA
:101FAE009030F5000A168A11AF250800E530F400CE
:101FBE009030F5000A168A11AF2508007B088400C0
:101FCE0083130008013A0319A52F033A0319AD2F05
:101FDE00013A0319B52F073A0319BD2F013A031918
:101FEE00C52F033A0319CD2F013A0319D52FDD2F33
:101FFE0008002034203420344334483441344E34E5
:10200E0047344534203448344F3455345234203418
:10201E002034203420342034003420342034203432
:10202E004334483441344E344734453420344D34EF
:10203E004F344E3454344834203420342034203439
:10204E0000342034203420344334483441344E3468
:10205E004734453420344D3449344E345534543499
:10206E004534203420342034003420344334483472
:10207E0041344E3447344534203457344534453496
:10208E004B34203444344134593420342034003419
:10209E0020342034533445345434543449344E347B
:1020AE0047342034443441345434453420342034BD
:1020BE0020340034203420344334483441344E34F8
:1020CE004734453420345334453443344F344E343E
:1020DE00443420342034003420342034203420344E
:1020EE00203441344C34413452344D342034203475
:1020FE002034203420340034203420342034203452
:10210E0020344D3449344E3455345434453420340F
:10211E0020342034203400342034203443344834E6
:10212E0041344E34473445342034443441345934E8
:10213E0020342034203400342034203443344834C6
:10214E0041344E34473445342034593445344134C7
:10215E005234203420340034203420345334453467
:10216E005434543449344E3447342034543449347E
:10217E004D34453400342034203420342034483457
:10218E004F3455345234203420342034203420340B
:10219E000034203420342034203453344534433436
:1021AE004F344E34443420342034203400345434EC
:1021BE0045344D3450343A34203400343F343F34B7
:1021CE003F34003457344534443400345434553499
:1021DE004534003446345234493400344D344F348F
:1021EE004E340034533455344E3400345334413469
:1021FE0054340034543448345534003441344D345E
:10220E00003450344D3400343A3400344334003406
:10221E00FF1B192983137F1883170008840A0319DB
:10222E00FF0A08007F087F398A000408840A031910
:04223E00FF0A820011
:1029CE0083160313911483128C1DEA2C8C110800AC
:1029DE0083160313111483128C1DF22C8C11080014
:1029EE0083160313111583128C1DFA2C8C110800FB
:1029FE0064008001840A0406031900340406002DC5
:102A0E0083160313911583128C1D0A2D8C11130836
:102A1E000800831603139112111683128C1D142DA8
:102A2E008C110800831603139116111683128C1D38
:102A3E001D2D8C11080083160313071687151830E9
:102A4E009300803094002830831203139400080002
:102A5E0001300A168A11F9250A168A110730F50077
:102A6E007D30F400F40B392DF50B392D0800F000F4
:102A7E0070088312031393008C1D432D8C11831643
:102A8E000313111B4C2D0310080003140800F30050
:102A9E00F201731C562D7008F1007108F207031035
:102AAE00F00D0310F30C7308031D502D720808006F
:102ABE00F201F301831203131F151F19642D1E0853
:102ACE00F300831603131E08F2007308F100720858
:102ADE00F00008007808F0007908F100F2018E305D
:102AEE00FB007B08F300F4010A168A119427700884
:102AFE00F8007108F9007208FA0008008312031337
:102B0E000614F930F0008B2DF00B8A2D8E2D8F2DA3
:102B1E00831203130610F930F000952DF00B942D4F
:102B2E00982D992D0800831603131F138312031378
:102B3E009F131F139F121F129F11831603139F17AC
:102B4E001F08F0390E389F00831203131F1408005C
:102B5E00750883120313FF00740884000A168A1185
:102B6E000F210A168A11003A0319080075088312FC
:102B7E000313FF00740884000A168A110F210A1627
:102B8E008A110A128A110A200A168A110130F407D4
:102B9E000318F50AAF2D0A30F0000030F1007A0864
:102BAE00F3007908F2000A168A11E2260A168A1133
:102BBE007008303E0A128A110A200A168A110A304B
:102BCE00F0000030F1007A08F3007908F2000A16DE
:102BDE008A1197260A168A117008303E0A128A1137
:102BEE000A200800F3008312031386100F30F10041
:102BFE00710886057308F039F100710886040A160B
:102C0E008A1185250A168A110F30F1007108831278
:102C1E00031386057308F10003300310F10DFF3E18
:102C2E00031D142E0310710DF039F2007208860484
:102C3E000A168A1185250800F5000A168A11EF2456
:102C4E000A168A11D0300A168A113E250A168A11E2
:102C5E000318242E75080A168A113E250A168A11A3
:102C6E00F601F7017208F300F40174087702031DF0
:102C7E00422E730876020318572E76087107F3005A
:102C8E0073088400831300080A168A113E250A165B
:102C9E008A110130F6070318F70A0030F707392EAC
:102CAE000A168A11F7240800F501F601700871045E
:102CBE000319922EF701F70AF11B712E0130031042
:102CCE00F00DF10DFF3E031D662E0130F400740869
:102CDE00F707632E01300310F50DF60DFF3E031DB1
:102CEE00722E71087302031D7E2E70087202031C71
:102CFE00872E7008F2027108031CF303F302751499
:102D0E0001300310F10CF00CFF3E031D882E013034
:102D1E00F702031D712E7608F1007508F000080009
:102D2E00F601F31FA12EF209F309F20A0319F30AB1
:102D3E00F601F60AF11FA82EF009F109F00A03199F
:102D4E00F10A700871040319D52EF501F50AF11B6D
:102D5E00BC2E01300310F00DF10DFF3E031DB12E00
:102D6E000130F4007408F507AE2E71087302031DCE
:102D7E00C22E70087202031CCA2E7008F20271086D
:102D8E00031CF303F30201300310F10CF00CFF3EB1
:102D9E00031DCB2E0130F502031DBC2E7608031940
:102DAE00DD2EF209F309F20A0319F30A7308F10092
:102DBE007208F0000800F601F11FEC2EF009F1097F
:102DCE00F00A0319F10AF601F60AF31FF72EF209BB
:102DDE00F309F20A0319F30A0130F4007408F60637
:102DEE00F701F8017008710403192E2FF501F50A89
:102DFE00F11B0D2F01300310F00DF10DFF3E031DE1
:102E0E00022F0130F4007408F507FF2E0130031075
:102E1E00F70DF80DFF3E031D0E2F71087302031DF3
:102E2E001A2F70087202031C232F7008F202710809
:102E3E00031CF303F302771401300310F10CF00CB2
:102E4E00FF3E031D242F0130F502031D0D2F7608C2
:102E5E000319362FF709F809F70A0319F80A780843
:102E6E00F1007708F0000800F6000A168A11EF2428
:102E7E000A168A11D0300A168A113E250A168A11B0
:102E8E0003183C2F76080A168A113E250A168A1157
:102E9E000A168A11E7240A168A11D1300A168A11E7
:102EAE003E250A168A110A168A1107250A168A1154
:102EBE00F400710884007408831380000130F70059
:102ECE000030F80073087802031D6F2F7208770226
:102EDE0003188B2F0A168A1110250A168A110A1644
:102EEE008A1107250A168A11F40077087107F50072
:102EFE00750884007408831380000130F7070318E7
:102F0E00F80A0030F807692F0A168A1119250A16D1
:102F1E008A110A168A11F7240800730803199C2FC8
:102F2E00720871047004031DAF2F0030F0000030E2
:102F3E00F1000030F20008000130F5007508F307CB
:102F4E0001300310F20CF10CF00CFF3E031DA82F04
:102F5E00FE3072050319CA2FA32F0130F500750834
:102F6E00F3070130F007003003180130F10700308D
:102F7E0003180130F20701300310F20CF10CF00CC3
:102F8E00FF3E031DC32FFF3072050319D92FB42F37
:102F9E000130F30201300310F00DF10DF20DFF3E82
:102FAE00031DD22FF11BDF2F023073020318CF2F18
:102FBE007318E72FFF30F0057F30F105FF30F20573
:102FCE000310F30C7308F500F601F701103003102F
:102FDE00F50DF60DF70DFF3E031DEE2F7508F004EF
:102FEE007608F1047708F204740803190800F21742
:022FFE000800C9
:02400E003AFF77
:00000001FF
